:020000040000FA
:0400000007EF00F016
:10000800588272ED05F06FEF06F01250800B1B6EF0
:1000180012501224216E11AE14EF00F016EF00F00A
:1000280019EF00F0218019EF00F02150D8B41FEF2C
:1000380000F021EF00F036EF00F02128D8A427EFD8
:1000480000F029EF00F033EF00F0000E0F6E000E05
:10005800106E000E116E000E126E33EF00F0118E4E
:1000680040EF00F0000E0F6E000E106E000E116EC5
:10007800000E126E40EF00F01650800B1B1A16503F
:100088001624206E15AE4BEF00F04DEF00F050EF48
:1000980000F0208050EF00F02050D8B456EF00F068
:1000A80058EF00F06DEF00F02028D8A45EEF00F0C4
:1000B80060EF00F06AEF00F0000E136E000E146E91
:1000C800000E156E000E166E6AEF00F0158E75EFB5
:1000D80000F0000E136E000E146E000E156E000E6A
:1000E800166E2050D8B47BEF00F07DEF00F087EF5C
:1000F80000F02150D8A483EF00F085EF00F093EFD3
:1001080000F087EF00F0000E0F6E000E106E000E6C
:10011800116E000E126E3FEF02F03FEF02F0155025
:100128000F02F3CF26F0F4CF27F026501C6E1D6A7D
:100138001E6A1F6A2750226E236A246A256A145091
:100148001002F3CF26F0F4CF27F026501C26000E1D
:100158001D221E221F2227502226000E232224227F
:10016800252213501102F3CF26F0F4CF27F02650A2
:100178001C26000E1D221E221F2227502226000E9A
:100188002322242225221EC01FF01DC01EF01CC0E1
:100198001DF01C6A13501002F3CF26F0F4CF27F09D
:1001A80026501C2627501D22000E1E22000E1F223C
:1001B80014500F02F3CF26F0F4CF27F026501C2658
:1001C80027501D22000E1E22000E1F221EC01FF0E7
:1001D8001DC01EF01CC01DF01C6A13500F02F3CF87
:1001E80026F0F4CF27F026501C2627501D22000E9B
:1001F8001E22000E1F2215501002F3CF26F0F4CF56
:1002080027F02650222627502322000E2422000EF3
:10021800252214501102F3CF26F0F4CF27F02650F0
:10022800222627502322000E2422000E25221550B4
:100238001102F3CF26F0F4CF27F02650176E27507F
:10024800186E196A1A6A19C01AF018C019F017C07E
:1002580018F0176A17502226185023221950242202
:100268001A5025221CC017F01DC018F01EC019F026
:100278001FC01AF0190E46EF01F0D8901A32193241
:1002880018321732E82E41EF01F017502226185085
:100298002322195024221A5025221EC01FF01DC0E7
:1002A8001EF01CC01DF01C6A205021C017F0186AEF
:1002B8001726000E1822820E1724266EFF0E18200D
:1002C800276E7EEF01F0D890223623362436253665
:1002D8001FAE71EF01F073EF01F074EF01F02280AF
:1002E800D8901C361D361E361F362606D8A027067F
:1002F8007EEF01F024AE83EF01F085EF01F067EFA8
:1003080001F087EF01F0000E206E1FAE8EEF01F0B6
:1003180090EF01F0B8EF01F0FF0E1C14176EFF0EFE
:100328001D14186EFF0E1E14196E7F0E1F141A6E00
:100338001750181019101A10D8B4A5EF01F0A7EF2C
:1003480001F0ABEF01F0010E206EB8EF01F022A032
:10035800B0EF01F0B2EF01F0B8EF01F0010E206E3E
:10036800B8EF01F0B8EF01F02050D8B4BEEF01F0BB
:10037800C0EF01F0E8EF01F0010E2226000E232263
:100388002422252225A0CBEF01F0CDEF01F0E8EFE4
:1003980001F022C017F023C018F024C019F025C0BE
:1003A8001AF01A341A3219321832173217C022F0DA
:1003B80018C023F019C024F01AC025F0264A272AAD
:1003C800E8EF01F0E8EF01F027BEF3EF01F0275066
:1003D80008E12628D8A0F3EF01F0F5EF01F0FFEFD0
:1003E80001F0000E226E000E236E800E246E7F0E2A
:1003F800256E33EF02F027BE0CEF02F0275006E11E
:100408002604D8B00AEF02F00CEF02F018EF02F061
:10041800000E226E000E236E000E246E000E256E56
:10042800000E1B6E33EF02F026C021F0FF0E2216DD
:10043800FF0E23167F0E2416000E251621A027EF87
:1004480002F029EF02F02CEF02F0248E2CEF02F0DC
:10045800D8902130256E33EF02F033EF02F01B50B5
:10046800251222C00FF023C010F024C011F025C0BF
:1004780012F03FEF02F0120004EC06F0A5EC06F0D3
:1004880099EC06F0000E2B6E010E2A6E4CEF02F06E
:100498004B504C10D8B453EF02F055EF02F061EF17
:1004A80002F0390E056E000E066E000E086E000E84
:1004B800076EF1EC04F061EF02F049504A10D8B42D
:1004C80068EF02F06AEF02F06CEF02F0D6EC05F08C
:1004D8002AEC06F001C028F002C029F028C001F07B
:1004E80029C002F0000E02BEFF0E036E046E010E5C
:1004F8004FEC03F001C00FF002C010F003C011F080
:1005080004C012F00A0E136E280E146EA00E156E9B
:100518003B0E166E09EC00F00FC054F010C055F0F9
:1005280011C056F012C057F0CD0E016ECC0E026EFF
:100538004C0E036E3D0E046E54C005F055C006F017
:1005480056C007F057C008F03DEC04F0D8A0AFEF54
:1005580002F0B2EF02F0010EB3EF02F0000E2A6EC5
:100568002B6A2A042B10D8A4BCEF02F0BEEF02F0CD
:10057800E5EF02F09A0E016E990E026E990E036E67
:100588003E0E046E54C005F055C006F056C007F084
:1005980057C008F03DEC04F0D8A0D5EF02F0D7EF33
:1005A80002F0DDEF02F0000E2B6E010E2A6EE5EF71
:1005B80002F0000E2B6E020E2A6EE5EF02F0E5EF58
:1005C80002F02BBEF0EF02F02B5008E12A04D8A06D
:1005D800F0EF02F0F2EF02F0F9EF02F0010E036E15
:1005E8002D50B0EC06F0F9EF02F04D044E10D8A4EF
:1005F80000EF03F002EF03F04CEF02F0000E4E6E36
:10060800000E4D6E2A042B10D8A40DEF03F00FEF47
:1006180003F01BEF03F0000E066E060E056EBAEC33
:1006280006F0000E2B6E000E2A6E4CEF02F0020E42
:100638002A182B10D8A423EF03F025EF03F031EF8D
:1006480003F0000E066E0F0E056EBAEC06F0000EF3
:100658002B6E000E2A6E4CEF02F02A502B10D8A4F5
:1006680038EF03F03AEF03F04CEF02F0D6EC05F068
:10067800000E036E2D50B0EC06F04CEF02F04CEF7C
:1006880002F04CEF02F04CEF02F04CEF02F04CEFAE
:1006980002F007EF00F0096E0950D8B456EF03F0E6
:1006A80058EF03F07AEF03F004BE5FEF03F05DEF5D
:1006B80003F07AEF03F001C005F002C006F003C0B2
:1006C80007F004C008F0051E061E071E081E052AAE
:1006D800000E06220722082205C00BF006C00CF007
:1006E80007C00DF008C00EF084EF03F001C00BF056
:1006F80002C00CF003C00DF004C00EF084EF03F04C
:100708000150021003100410D8A48DEF03F08FEFEE
:1007180003F09BEF03F0000E016E000E026E000E58
:10072800036E000E046E3CEF04F03CEF04F0960EEE
:100738000A6EA7EF03F00A2AD8900E320D320C3257
:100748000B32A7EF03F0000E0B14056E000E0C140D
:10075800066E000E0D14076EFE0E0E14086E055080
:10076800061007100810D8A4BCEF03F0BEEF03F082
:100778009FEF03F0CEEF03F0CEEF03F00A2A010E4D
:100788000B26000E0C220D220E22D8900E320D32AE
:100798000C320B32000E0B14056E000E0C14066E94
:1007A800000E0D14076EFF0E0E14086E055006108D
:1007B80007100810D8A4E3EF03F0E5EF03F0C2EF49
:1007C80003F0F1EF03F0F1EF03F00A06D8900B36CF
:1007D8000C360D360E36F1EF03F00DBEF6EF03F0D2
:1007E800F8EF03F002EF04F0020E0A60FEEF03F0E8
:1007F80000EF04F0E9EF03F002EF04F00AB007EFAE
:1008080004F009EF04F00CEF04F00D9E0CEF04F077
:10081800D8900A320AC005F0066A076A086A05C055
:1008280008F0076A066A056A05500B1206500C1292
:1008380007500D1208500E120950D8B426EF04F0D4
:1008480028EF04F032EF04F004BE2FEF04F02DEF90
:1008580004F032EF04F00E8E32EF04F00BC001F01A
:100868000CC002F00DC003F00EC004F03CEF04F021
:100878001200000E0114096E000E02140A6E800E9A
:1008880003140B6E7F0E04140C6E09500A100B1023
:100898000C10D8A452EF04F054EF04F05EEF04F00B
:1008A800000E016E000E026E000E036E000E046E46
:1008B8005EEF04F0000E0514096E000E06140A6EB1
:1008C800800E07140B6E7F0E08140C6E09500A1068
:1008D8000B100C10D8A473EF04F075EF04F07FEF41
:1008E80004F0000E056E000E066E000E076E000E78
:1008F800086E7FEF04F004AE84EF04F086EF04F096
:10090800A5EF04F001C009F002C00AF003C00BF023
:1009180004C00CF0091E0A1E0B1E0C1E092A000E2C
:100928000A220B220C22000E0924016E000E0A2056
:10093800026E000E0B20036E800E0C20046EA5EFD5
:1009480004F008AEAAEF04F0ACEF04F0C9EF04F02D
:1009580005C009F006C00AF007C00BF008C00CF08B
:10096800091E0A1E0B1E0C1E092A000E0A220B2243
:100978000C22000E0924056E000E0A20066E000ED9
:100988000B20076E800E0C20086E000E011A000E58
:10099800021A000E031A800E041A000E051A000E21
:1009A800061A000E071A800E081A0550015C065038
:1009B80002580750035808500458D8B0E6EF04F01E
:1009C800E8EF04F0EBEF04F0D890F0EF04F0D880F3
:1009D800F0EF04F0F0EF04F01200D8900734D96E6D
:1009E8000834DA6E0550D9260650DA22DF50036E35
:1009F800010EB0EC06F0074A082AD8900734D96EE1
:100A08000834DA6E0550D9260650DA22DF50036E14
:100A1800020EB0EC06F0074A082AD8900734D96EBF
:100A28000834DA6E0550D9260650DA22DF50036EF4
:100A3800030EB0EC06F0074A082AD8900734D96E9E
:100A48000834DA6E0550D9260650DA22DF50036ED4
:100A5800040EB0EC06F0074A082AD8900734D96E7D
:100A68000834DA6E0550D9260650DA22DF50036EB4
:100A7800050EB0EC06F0074A082AD8900734D96E5C
:100A88000834DA6E0550D9260650DA22DF50036E94
:100A9800060EB0EC06F0074A082AD8900734D96E3B
:100AA8000834DA6E0550D9260650DA22DF50036E74
:100AB800070EB0EC06F0074A082AD8900734D96E1A
:100AC8000834DA6E0550D9260650DA22DF50036E54
:100AD800080EB0EC06F0074A082A120006009DA28C
:100AE80078EF05F07AEF05F085EF05F09EA27FEF2D
:100AF80005F081EF05F085EF05F0514A522A85EFA0
:100B080005F0020E51185210D8A48DEF05F08FEFA2
:100B180005F0AEEF05F04F505010D8A496EF05F051
:100B280098EF05F0AEEF05F0000E4C6E010E4B6E1F
:100B3800000E4A6E000E496E000E526E000E516E87
:100B4800000E506E010E4F6E000E4E6E010E4D6E71
:100B5800AEEF05F0040E51185210D8A4B6EF05F008
:100B6800B8EF05F0D3EF05F04F045010D8A4BFEF4D
:100B780005F0C1EF05F0D3EF05F0000E4A6E010E47
:100B8800496E000E4C6E000E4B6E000E526E000E3B
:100B9800516E000E506E000E4F6ED3EF05F09E9210
:100BA80058921100000E066E010E056E06BEE6EFA5
:100BB80005F0065009E1090E055CD8A0E6EF05F03E
:100BC800E8EF05F0ECEF05F003EF06F003EF06F0B1
:100BD800000E036E0550B0EC06F0054A062A06BE64
:100BE800FFEF05F0065009E1090E055CD8A0FFEFFC
:100BF80005F001EF06F0ECEF05F003EF06F0120048
:100C0800400EC76E300EC66E0F0EC16E929A949645
:100C1800949A8B86070E036E2E50B0EC06F0000EE9
:100C2800036E3050B0EC06F0010E036E2D50B0ECA0
:100C380006F0000E036E2C50B0EC06F0D6EC05F072
:100C4800010E036E2F50B0EC06F01200C294C2964B
:100C5800C298C29AC282C28032EF06F0C2B237EF9F
:100C680006F039EF06F032EF06F03BEF06F0C3501E
:100C7800C4CF03F0046A03C004F0036A0310056ECE
:100C88000450066E05C001F006C002F04CEF06F0F5
:100C98001200026EC9CF01F09E96C69E02C0C9FF1F
:100CA800C6AE59EF06F05BEF06F063EF06F06EEFA5
:100CB80006F06EEF06F06EEF06F063EF06F09EA604
:100CC80068EF06F06AEF06F063EF06F06EEF06F0E5
:100CD8006EEF06F01200140EF66E0D0EF76E000E93
:100CE800F86E00EE2CF010EE1DF00900F5CFEEFFC7
:100CF800E550E150FAE100EE49F00F0EEE6AE80621
:100D0800FDE158905892000140EF02F00F0C0B0AD9
:100D1800090807060504030201180024000000DF83
:090D280000DF00000024001800A7
:100D320092800E0EC16EC08EC080C082C084000E32
:100D4200C46E000EC36E120095928C92D08ECA6849
:100D5200F40ECB6E9D829F829E92F28E1200046EE2
:100D6200899A04504DEC06F003504DEC06F0898A46
:0E0D7200120005C003F02F50B0EC06F0120086
:020000040020DA
:08000000FFFFFFFFFFFFFFFF00
:020000040030CA
:0E000000FF881F00FF8381FF0FC00FE00F403D
:00000001FF
